:100000000C9463000C948B000C948B000C9466028F
:100010000C9466020C9466020C948B000C948B007A
:100020000C948B000C948B000C948B000C948B0024
:100030000C948B000C948B000C948B000C948B0014
:100040000C941C020C948B000C948B000C948B0071
:100050000C948B000C948B000C948B000C948B00F4
:100060000C948B000C948B000000000023002600F1
:10007000290000000000240027002A0000000000E2
:10008000250028002B0004040404040404040202D4
:100090000202020203030303030301020408102007
:1000A0004080010204081020010204081020000012
:1000B0000008000201000003040700000000000027
:1000C00000009C04090511241FBECFEFD8E0DEBF5D
:1000D000CDBF11E0A0E0B1E0E6EAFAE002C0059091
:1000E0000D92AE32B107D9F721E0AEE2B1E001C026
:1000F0001D92AA39B207E1F710E0C2E6D0E004C0D1
:100100002197FE010E943B05C136D107C9F70E9425
:10011000E0020C9446050C940000CF92DF92EF921F
:10012000FF920F931F93CF93DF936C017A018B01A2
:10013000C0E0D0E0CE15DF0589F0D8016D918D01CA
:10014000D601ED91FC910190F081E02DC601099559
:10015000892B11F47E0102C02196ECCFC701DF91FB
:10016000CF911F910F91FF90EF90DF90CF90089566
:1001700090E0FC01E255FF4F3491FC01E656FF4F41
:100180002491FC01EA57FF4FE491EE2309F43BC0B0
:10019000332339F1333091F038F43130A9F0323073
:1001A00001F584B58F7D12C0373091F03830A1F061
:1001B0003430B9F4809180008F7D03C0809180003D
:1001C0008F77809380000DC084B58F7784BD09C080
:1001D0008091B0008F7703C08091B0008F7D8093B5
:1001E000B000F0E0EE0FFF1FE458FF4FA591B4916F
:1001F0008FB7F894EC91611103C020952E2301C0B4
:100200002E2B2C938FBF0895CF93DF9390E0FC01AA
:10021000E656FF4F2491FC01EA57FF4F8491882353
:1002200061F190E0880F991FFC01EE58FF4FC591D6
:10023000D491FC01E458FF4FA591B491611109C01C
:100240009FB7F8948881209582238883EC912E2390
:100250000BC0623061F49FB7F8943881822F80958B
:1002600083238883EC912E2B2C939FBF06C08FB7DE
:10027000F894E8812E2B28838FBFDF91CF910895CA
:1002800020917501309176012817390771F490910A
:10029000730180917401981741F0E0917301F0E0CF
:1002A000E25DFE4F808190E008958FEF9FEF08950B
:1002B00008951F93CF93DF93DC015C962D913C91C1
:1002C0005D972115310539F481E090E013969C93F8
:1002D0008E9312973DC05196ED91FC915297509696
:1002E0009C915097892F80951FB75E964C915E9791
:1002F00041FB772770F941FD6095F89440817723A1
:1003000011F0492B01C048234083E9012197F1F7FF
:1003100048E0508160FF02C0592B01C05823508330
:10032000E9012197F1F76695415099F7772321F07C
:1003300090818923808303C08081982B90831FBF85
:100340005C968D919C915D970197F1F721E030E0EB
:10035000C901DF91CF911F910895209175013091CE
:1003600076012817390771F4809174012091730187
:1003700090E0805C9F4F821B910960E470E00E94D6
:100380001305089580E090E0089520917501309163
:10039000760128173907B9F490917301809174019F
:1003A000981789F0E0917301F0E0E25DFE4F8081E3
:1003B0002091730130E02F5F3F4F2F73332720933D
:1003C000730190E008958FEF9FEF0895E09175011C
:1003D000F0917601E817F90769F4A389B4899C9133
:1003E0008589809589238C931092760110927501EE
:1003F00081E0089580E00895089580E090E00895F8
:10040000CF93DF93D82FC8E0D7FF02C061E001C0CF
:1004100060E08BE00E94B800DD0F60E08DE00E949C
:10042000B80061E08DE00E94B800C15069F7DF912B
:10043000CF9108950E9441051F920F920FB60F921F
:1004400011242F933F938F939F93AF93BF938091EA
:10045000770190917801A0917901B0917A01309162
:10046000720123E0230F2D3720F40196A11DB11D49
:1004700005C026E8230F0296A11DB11D209372012D
:100480008093770190937801A0937901B0937A01DA
:1004900080916E0190916F01A0917001B0917101F6
:1004A0000196A11DB11D80936E0190936F01A093E1
:1004B0007001B0937101BF91AF919F918F913F9166
:1004C0002F910F900FBE0F901F9018951F920F92B3
:1004D0000FB60F9211242F933F934F935F936F9317
:1004E0007F938F939F93AF93BF93EF93FF93E0918D
:1004F0007501F0917601309709F451C0968DA6856B
:10050000B785858591FF04C09C91892329F447C054
:100510009C91892309F043C0A389B4899C91858962
:10052000809589238C93868997890197F1F7608D4F
:10053000718DA685B785558538E020E0CB01019700
:10054000F1F7822F90E095958795282F4C914523C0
:1005500009F02068315091F7868D81FD20958091BA
:10056000740190E001968F739927309173013817C9
:1005700049F0A0917401B0E0A25DBE4F2C9380932E
:10058000740103C0868D8160868F828D938D019763
:10059000F1F7A389B4899C918589892B8C93FF916C
:1005A000EF91BF91AF919F918F917F916F915F91EB
:1005B0004F913F912F910F900FBE0F901F90189564
:1005C000789484B5826084BD84B5816084BD85B52E
:1005D000826085BD85B5816085BD80916E0081603A
:1005E00080936E00109281008091810082608093E0
:1005F00081008091810081608093810080918000E2
:100600008160809380008091B10084608093B1000C
:100610008091B00081608093B00080917A00846006
:1006200080937A0080917A00826080937A00809132
:100630007A00816080937A0080917A00806880934C
:100640007A001092C10010929601109295011092BA
:1006500094011092930110929201109291018DE9F0
:1006600091E0909398018093970190918701963142
:1006700008F057C02DEB30E03093920120939101A8
:100680002BE931E030939401209393012CE231E087
:10069000309396012093950120916800983050F096
:1006A00031E09E3008F430E081E001C0880F3A95D7
:1006B000EAF701C084E0822B80936800983038F01C
:1006C0009E3040F0963148F020E030E008C02DE642
:1006D00030E005C02BE630E002C02CE630E030937D
:1006E0008F0120938E01983030F481E001C0880F93
:1006F0009A95EAF70EC0292F30E09E3018F4285062
:10070000310902C02E50310981E001C0880F2A95BD
:10071000EAF7809390018091970190919801019759
:10072000F1F78091950190919601892B21F18091AB
:1007300075019091760121E08B379207E1F00097E7
:1007400011F00E94E601809199018E7F80939901BA
:1007500010927401109273018BE791E090937601EF
:1007600080937501E0918E01F0918F0190818091CD
:100770009001892B808361E08DE00E94040161E09B
:100780008CE00E94040161E08BE00E940401CAE059
:10079000D0E08AE0F82E00E010E08FB7F894809067
:1007A000770190907801A0907901B0907A018FBF85
:1007B0002FB7F8948091770190917801A0917901F9
:1007C000B0917A012FBF88199909AA09BB09883EFF
:1007D0009340A105B10508F051C0E0910601F091E8
:1007E0000701E45EFE4F80810E94000281E00E94CA
:1007F000000260E08CE00E94B80061E08CE00E94A2
:10080000B800E0910401F0910501E45EFE4F8081A3
:100810000E94000282E00E94000260E08CE00E94E0
:10082000B80061E08CE00E94B800E0910201F09114
:100830000301E45EFE4F80810E94000284E00E947A
:10084000000260E08CE00E94B80061E08CE00E9451
:10085000B800E0910001F0910101E45EFE4F80815B
:100860000E94000288E00E94000260E08CE00E948A
:10087000B80061E08CE00E94B8009ACF2091080196
:100880003091090121153105A1F1E6E0F1E08AE09E
:1008900090E040E050E0B291A2918A9FB0018B9F1E
:1008A000700D9A9F700D1124460F571FBC01F69EC4
:1008B000C001F79E900D112471E0E030F70759F761
:1008C0008091060190910701840F951F0197E8E040
:1008D000F1E0BE010E94130592938293CB0141E0A7
:1008E000E030F407B1F7215031093093090120932A
:1008F000080180910801909109010897B1F4E091F5
:100900007B01F0917C010190F081E02D61E68BE7A5
:1009100091E00995E0917B01F0917C010190F081DB
:10092000E02D60E28BE791E009950115110509F4CE
:1009300034CF0E94000031CF10927E0110927D01D1
:1009400088EE93E0A0E0B0E080937F019093800177
:10095000A0938101B09382018EE091E090937C019D
:1009600080937B0110929201109291011092940158
:100970001092930110929601109295011092980195
:1009800010929701609199016E7F6D7F609399013C
:100990006695617081E0682783E00E94B80061E09D
:1009A00083E00E940401EDE9F0E0E491E0938B0123
:1009B000E9E8F0E0E491F0E0EE0FFF1FE458FF4FAC
:1009C0008591949190938D0180938C0160E082E0F9
:1009D0000E9404018091990181FD04C061E082E0E0
:1009E0000E94B80082E080938701ECE9F0E0E49196
:1009F000E0938801E8E8F0E0E491F0E0EE0FFF1FFB
:100A0000E859FF4F8591949190938A0180938901D1
:100A100008958EE091E090937C0180937B018BE7B9
:100A200091E00C94E60197FB072E16F4009407D092
:100A300077FD09D00E94270507FC05D03EF490956C
:100A400081959F4F0895709561957F4F0895AA1BDA
:100A5000BB1B51E107C0AA1FBB1FA617B70710F0A9
:100A6000A61BB70B881F991F5A95A9F780959095DB
:100A7000BC01CD010895EE0FFF1F0590F491E02D0C
:100A8000099481E090E0F8940C94460510E0C2E6E9
:100A9000D0E004C0FE010E943B052196C336D10779
:060AA000C9F7F894FFCF36
:100AA60000000000010000000A00000000005901DB
:100AB6008D00FD015801AD01C5014001C0F9A4B08A
:0E0AC600999282F880908CBFC6A186FFBF0077
:107E0000112484B714BE81FFF0D085E080938100F7
:107E100082E08093C00088E18093C10086E0809377
:107E2000C20080E18093C4008EE0C9D0259A86E02C
:107E300020E33CEF91E0309385002093840096BBD3
:107E4000B09BFECF1D9AA8958150A9F7CC24DD24C4
:107E500088248394B5E0AB2EA1E19A2EF3E0BF2EE7
:107E6000A2D0813461F49FD0082FAFD0023811F036
:107E7000013811F484E001C083E08DD089C08234E0
:107E800011F484E103C0853419F485E0A6D080C0E4
:107E9000853579F488D0E82EFF2485D0082F10E0AE
:107EA000102F00270E291F29000F111F8ED06801E7
:107EB0006FC0863521F484E090D080E0DECF843638
:107EC00009F040C070D06FD0082F6DD080E0C81688
:107ED00080E7D80618F4F601B7BEE895C0E0D1E017
:107EE00062D089930C17E1F7F0E0CF16F0E7DF06D8
:107EF00018F0F601B7BEE89568D007B600FCFDCFD4
:107F0000A601A0E0B1E02C9130E011968C91119780
:107F100090E0982F8827822B932B1296FA010C0160
:107F200087BEE89511244E5F5F4FF1E0A038BF0790
:107F300051F7F601A7BEE89507B600FCFDCF97BE46
:107F4000E89526C08437B1F42ED02DD0F82E2BD052
:107F50003CD0F601EF2C8F010F5F1F4F84911BD097
:107F6000EA94F801C1F70894C11CD11CFA94CF0C13
:107F7000D11C0EC0853739F428D08EE10CD085E9AC
:107F80000AD08FE07ACF813511F488E018D01DD067
:107F900080E101D065CF982F8091C00085FFFCCF94
:107FA0009093C60008958091C00087FFFCCF809118
:107FB000C00084FD01C0A8958091C6000895E0E648
:107FC000F0E098E1908380830895EDDF803219F02E
:107FD00088E0F5DFFFCF84E1DECF1F93182FE3DFCA
:107FE0001150E9F7F2DF1F91089580E0E8DFEE27F6
:047FF000FF270994CA
:027FFE00040479
:0400000300007E007B
:00000001FF
